{
  "contractName": "LynxUser",
  "abi": [
    {
      "inputs": [
        {
          "internalType": "address",
          "name": "_userAddress",
          "type": "address"
        },
        {
          "internalType": "address",
          "name": "_lendingPoolAddressesProvider",
          "type": "address"
        }
      ],
      "stateMutability": "nonpayable",
      "type": "constructor"
    },
    {
      "anonymous": false,
      "inputs": [
        {
          "indexed": true,
          "internalType": "address",
          "name": "_from",
          "type": "address"
        },
        {
          "indexed": true,
          "internalType": "address",
          "name": "_to",
          "type": "address"
        },
        {
          "indexed": true,
          "internalType": "address",
          "name": "_assetAddress",
          "type": "address"
        },
        {
          "indexed": false,
          "internalType": "uint256",
          "name": "_depositAmount",
          "type": "uint256"
        }
      ],
      "name": "LogDeposit",
      "type": "event"
    },
    {
      "anonymous": false,
      "inputs": [
        {
          "indexed": true,
          "internalType": "address",
          "name": "_from",
          "type": "address"
        },
        {
          "indexed": true,
          "internalType": "address",
          "name": "_to",
          "type": "address"
        },
        {
          "indexed": true,
          "internalType": "address",
          "name": "_assetAddress",
          "type": "address"
        },
        {
          "indexed": false,
          "internalType": "uint256",
          "name": "_withdrawAmount",
          "type": "uint256"
        }
      ],
      "name": "LogWithdraw",
      "type": "event"
    },
    {
      "anonymous": false,
      "inputs": [
        {
          "indexed": true,
          "internalType": "address",
          "name": "previousOwner",
          "type": "address"
        },
        {
          "indexed": true,
          "internalType": "address",
          "name": "newOwner",
          "type": "address"
        }
      ],
      "name": "OwnershipTransferred",
      "type": "event"
    },
    {
      "inputs": [],
      "name": "owner",
      "outputs": [
        {
          "internalType": "address",
          "name": "",
          "type": "address"
        }
      ],
      "stateMutability": "view",
      "type": "function"
    },
    {
      "inputs": [],
      "name": "renounceOwnership",
      "outputs": [],
      "stateMutability": "nonpayable",
      "type": "function"
    },
    {
      "inputs": [
        {
          "internalType": "address",
          "name": "newOwner",
          "type": "address"
        }
      ],
      "name": "transferOwnership",
      "outputs": [],
      "stateMutability": "nonpayable",
      "type": "function"
    },
    {
      "inputs": [],
      "name": "userAddress",
      "outputs": [
        {
          "internalType": "address",
          "name": "",
          "type": "address"
        }
      ],
      "stateMutability": "view",
      "type": "function"
    },
    {
      "inputs": [
        {
          "internalType": "uint256",
          "name": "_amount",
          "type": "uint256"
        }
      ],
      "name": "doDeposit",
      "outputs": [],
      "stateMutability": "nonpayable",
      "type": "function"
    },
    {
      "inputs": [
        {
          "internalType": "uint256",
          "name": "_amount",
          "type": "uint256"
        }
      ],
      "name": "doWithdraw",
      "outputs": [],
      "stateMutability": "nonpayable",
      "type": "function"
    },
    {
      "inputs": [],
      "name": "getUserBalance",
      "outputs": [
        {
          "internalType": "uint256",
          "name": "",
          "type": "uint256"
        }
      ],
      "stateMutability": "view",
      "type": "function"
    }
  ],
  "bytecode": "0x608060405273ff795577d9ac8bd7d90ee22b6c1703490b6512fd600260006101000a81548173ffffffffffffffffffffffffffffffffffffffff021916908373ffffffffffffffffffffffffffffffffffffffff1602179055503480156200006657600080fd5b50604051620019873803806200198783398181016040528101906200008c9190620002f5565b60006200009e620002aa60201b60201c565b9050806000806101000a81548173ffffffffffffffffffffffffffffffffffffffff021916908373ffffffffffffffffffffffffffffffffffffffff1602179055508073ffffffffffffffffffffffffffffffffffffffff16600073ffffffffffffffffffffffffffffffffffffffff167f8be0079c531659141344cd1fd0a4f28419497f9722a3daafe3b4186f6b6457e060405160405180910390a35081600160006101000a81548173ffffffffffffffffffffffffffffffffffffffff021916908373ffffffffffffffffffffffffffffffffffffffff16021790555080600360006101000a81548173ffffffffffffffffffffffffffffffffffffffff021916908373ffffffffffffffffffffffffffffffffffffffff160217905550600360009054906101000a900473ffffffffffffffffffffffffffffffffffffffff1673ffffffffffffffffffffffffffffffffffffffff16630261bf8b6040518163ffffffff1660e01b815260040160206040518083038186803b1580156200022757600080fd5b505afa1580156200023c573d6000803e3d6000fd5b505050506040513d601f19601f82011682018060405250810190620002629190620002c9565b600460006101000a81548173ffffffffffffffffffffffffffffffffffffffff021916908373ffffffffffffffffffffffffffffffffffffffff160217905550505062000384565b600033905090565b600081519050620002c3816200036a565b92915050565b600060208284031215620002dc57600080fd5b6000620002ec84828501620002b2565b91505092915050565b600080604083850312156200030957600080fd5b60006200031985828601620002b2565b92505060206200032c85828601620002b2565b9150509250929050565b600062000343826200034a565b9050919050565b600073ffffffffffffffffffffffffffffffffffffffff82169050919050565b620003758162000336565b81146200038157600080fd5b50565b6115f380620003946000396000f3fe608060405234801561001057600080fd5b506004361061007d5760003560e01c8063b7013dc11161005b578063b7013dc1146100c6578063d39b34ae146100e4578063e4128fb314610100578063f2fde38b1461011e5761007d565b8063010f59d714610082578063715018a61461009e5780638da5cb5b146100a8575b600080fd5b61009c600480360381019061009791906110a7565b61013a565b005b6100a6610438565b005b6100b061058b565b6040516100bd91906112d8565b60405180910390f35b6100ce6105b4565b6040516100db9190611438565b60405180910390f35b6100fe60048036038101906100f991906110a7565b610720565b005b610108610c14565b60405161011591906112d8565b60405180910390f35b61013860048036038101906101339190611002565b610c3a565b005b610142610dfc565b73ffffffffffffffffffffffffffffffffffffffff1660008054906101000a900473ffffffffffffffffffffffffffffffffffffffff1673ffffffffffffffffffffffffffffffffffffffff16146101cf576040517f08c379a00000000000000000000000000000000000000000000000000000000081526004016101c6906113f8565b60405180910390fd5b600460009054906101000a900473ffffffffffffffffffffffffffffffffffffffff1673ffffffffffffffffffffffffffffffffffffffff166369328dec600260009054906101000a900473ffffffffffffffffffffffffffffffffffffffff1683306040518463ffffffff1660e01b81526004016102509392919061131c565b602060405180830381600087803b15801561026a57600080fd5b505af115801561027e573d6000803e3d6000fd5b505050506040513d601f19601f820116820180604052508101906102a291906110d0565b50600260009054906101000a900473ffffffffffffffffffffffffffffffffffffffff1673ffffffffffffffffffffffffffffffffffffffff1663a9059cbb600160009054906101000a900473ffffffffffffffffffffffffffffffffffffffff16836040518363ffffffff1660e01b81526004016103229291906112f3565b602060405180830381600087803b15801561033c57600080fd5b505af1158015610350573d6000803e3d6000fd5b505050506040513d601f19601f820116820180604052508101906103749190611054565b50600260009054906101000a900473ffffffffffffffffffffffffffffffffffffffff1673ffffffffffffffffffffffffffffffffffffffff16600160009054906101000a900473ffffffffffffffffffffffffffffffffffffffff1673ffffffffffffffffffffffffffffffffffffffff163073ffffffffffffffffffffffffffffffffffffffff167faa5b60cdfa493767441e10be5daea291b831cb9faa638ebf160d434588d7ecbd8460405161042d9190611438565b60405180910390a450565b610440610dfc565b73ffffffffffffffffffffffffffffffffffffffff1660008054906101000a900473ffffffffffffffffffffffffffffffffffffffff1673ffffffffffffffffffffffffffffffffffffffff16146104cd576040517f08c379a00000000000000000000000000000000000000000000000000000000081526004016104c4906113f8565b60405180910390fd5b600073ffffffffffffffffffffffffffffffffffffffff1660008054906101000a900473ffffffffffffffffffffffffffffffffffffffff1673ffffffffffffffffffffffffffffffffffffffff167f8be0079c531659141344cd1fd0a4f28419497f9722a3daafe3b4186f6b6457e060405160405180910390a360008060006101000a81548173ffffffffffffffffffffffffffffffffffffffff021916908373ffffffffffffffffffffffffffffffffffffffff160217905550565b60008060009054906101000a900473ffffffffffffffffffffffffffffffffffffffff16905090565b600080600460009054906101000a900473ffffffffffffffffffffffffffffffffffffffff1673ffffffffffffffffffffffffffffffffffffffff166335ea6a75600260009054906101000a900473ffffffffffffffffffffffffffffffffffffffff166040518263ffffffff1660e01b815260040161063491906112d8565b6101806040518083038186803b15801561064d57600080fd5b505afa158015610661573d6000803e3d6000fd5b505050506040513d601f19601f82011682018060405250810190610685919061107d565b60e00151905060008173ffffffffffffffffffffffffffffffffffffffff166370a08231306040518263ffffffff1660e01b81526004016106c691906112d8565b60206040518083038186803b1580156106de57600080fd5b505afa1580156106f2573d6000803e3d6000fd5b505050506040513d601f19601f8201168201806040525081019061071691906110d0565b9050809250505090565b610728610dfc565b73ffffffffffffffffffffffffffffffffffffffff1660008054906101000a900473ffffffffffffffffffffffffffffffffffffffff1673ffffffffffffffffffffffffffffffffffffffff16146107b5576040517f08c379a00000000000000000000000000000000000000000000000000000000081526004016107ac906113f8565b60405180910390fd5b600081116107f8576040517f08c379a00000000000000000000000000000000000000000000000000000000081526004016107ef906113d8565b60405180910390fd5b6000600360009054906101000a900473ffffffffffffffffffffffffffffffffffffffff1673ffffffffffffffffffffffffffffffffffffffff16630261bf8b6040518163ffffffff1660e01b815260040160206040518083038186803b15801561086257600080fd5b505afa158015610876573d6000803e3d6000fd5b505050506040513d601f19601f8201168201806040525081019061089a919061102b565b9050600260009054906101000a900473ffffffffffffffffffffffffffffffffffffffff1673ffffffffffffffffffffffffffffffffffffffff1663095ea7b382846040518363ffffffff1660e01b81526004016108f99291906112f3565b602060405180830381600087803b15801561091357600080fd5b505af1158015610927573d6000803e3d6000fd5b505050506040513d601f19601f8201168201806040525081019061094b9190611054565b61098a576040517f08c379a000000000000000000000000000000000000000000000000000000000815260040161098190611418565b60405180910390fd5b600460009054906101000a900473ffffffffffffffffffffffffffffffffffffffff1673ffffffffffffffffffffffffffffffffffffffff1663e8eda9df600260009054906101000a900473ffffffffffffffffffffffffffffffffffffffff16843060006040518563ffffffff1660e01b8152600401610a0e9493929190611353565b600060405180830381600087803b158015610a2857600080fd5b505af1158015610a3c573d6000803e3d6000fd5b50505050600260009054906101000a900473ffffffffffffffffffffffffffffffffffffffff1673ffffffffffffffffffffffffffffffffffffffff1663095ea7b3600160009054906101000a900473ffffffffffffffffffffffffffffffffffffffff16846040518363ffffffff1660e01b8152600401610abf9291906112f3565b602060405180830381600087803b158015610ad957600080fd5b505af1158015610aed573d6000803e3d6000fd5b505050506040513d601f19601f82011682018060405250810190610b119190611054565b610b50576040517f08c379a0000000000000000000000000000000000000000000000000000000008152600401610b47906113b8565b60405180910390fd5b600260009054906101000a900473ffffffffffffffffffffffffffffffffffffffff1673ffffffffffffffffffffffffffffffffffffffff163073ffffffffffffffffffffffffffffffffffffffff16600160009054906101000a900473ffffffffffffffffffffffffffffffffffffffff1673ffffffffffffffffffffffffffffffffffffffff167f74a806d614cb397aefa0c403ef3fd5585636fd7dcd944f1ee93034a1694fd4ea85604051610c089190611438565b60405180910390a45050565b600160009054906101000a900473ffffffffffffffffffffffffffffffffffffffff1681565b610c42610dfc565b73ffffffffffffffffffffffffffffffffffffffff1660008054906101000a900473ffffffffffffffffffffffffffffffffffffffff1673ffffffffffffffffffffffffffffffffffffffff1614610ccf576040517f08c379a0000000000000000000000000000000000000000000000000000000008152600401610cc6906113f8565b60405180910390fd5b600073ffffffffffffffffffffffffffffffffffffffff168173ffffffffffffffffffffffffffffffffffffffff161415610d3f576040517f08c379a0000000000000000000000000000000000000000000000000000000008152600401610d3690611398565b60405180910390fd5b8073ffffffffffffffffffffffffffffffffffffffff1660008054906101000a900473ffffffffffffffffffffffffffffffffffffffff1673ffffffffffffffffffffffffffffffffffffffff167f8be0079c531659141344cd1fd0a4f28419497f9722a3daafe3b4186f6b6457e060405160405180910390a3806000806101000a81548173ffffffffffffffffffffffffffffffffffffffff021916908373ffffffffffffffffffffffffffffffffffffffff16021790555050565b600033905090565b600081359050610e1381611533565b92915050565b600081519050610e2881611533565b92915050565b600081519050610e3d8161154a565b92915050565b600060208284031215610e5557600080fd5b610e5f6020611453565b90506000610e6f84828501610fc3565b60008301525092915050565b60006101808284031215610e8e57600080fd5b610e99610180611453565b90506000610ea984828501610e43565b6000830152506020610ebd84828501610f99565b6020830152506040610ed184828501610f99565b6040830152506060610ee584828501610f99565b6060830152506080610ef984828501610f99565b60808301525060a0610f0d84828501610f99565b60a08301525060c0610f2184828501610fd8565b60c08301525060e0610f3584828501610e19565b60e083015250610100610f4a84828501610e19565b61010083015250610120610f6084828501610e19565b61012083015250610140610f7684828501610e19565b61014083015250610160610f8c84828501610fed565b6101608301525092915050565b600081519050610fa881611561565b92915050565b600081359050610fbd81611578565b92915050565b600081519050610fd281611578565b92915050565b600081519050610fe78161158f565b92915050565b600081519050610ffc816115a6565b92915050565b60006020828403121561101457600080fd5b600061102284828501610e04565b91505092915050565b60006020828403121561103d57600080fd5b600061104b84828501610e19565b91505092915050565b60006020828403121561106657600080fd5b600061107484828501610e2e565b91505092915050565b6000610180828403121561109057600080fd5b600061109e84828501610e7b565b91505092915050565b6000602082840312156110b957600080fd5b60006110c784828501610fae565b91505092915050565b6000602082840312156110e257600080fd5b60006110f084828501610fc3565b91505092915050565b61110281611491565b82525050565b61111181611521565b82525050565b6000611124602683611480565b91507f4f776e61626c653a206e6577206f776e657220697320746865207a65726f206160008301527f64647265737300000000000000000000000000000000000000000000000000006020830152604082019050919050565b600061118a602b83611480565b91507f417070726f7665206465706f73697420686173206661696c656420666f72207560008301527f736572203f3f3f3f3f3f3f0000000000000000000000000000000000000000006020830152604082019050919050565b60006111f0602483611480565b91507f416d6f756e74206e6565647320746f2062652067726561746572207468616e2060008301527f30212121000000000000000000000000000000000000000000000000000000006020830152604082019050919050565b6000611256602083611480565b91507f4f776e61626c653a2063616c6c6572206973206e6f7420746865206f776e65726000830152602082019050919050565b6000611296601283611480565b91507f417070726f766520686173206661696c656400000000000000000000000000006000830152602082019050919050565b6112d2816114f9565b82525050565b60006020820190506112ed60008301846110f9565b92915050565b600060408201905061130860008301856110f9565b61131560208301846112c9565b9392505050565b600060608201905061133160008301866110f9565b61133e60208301856112c9565b61134b60408301846110f9565b949350505050565b600060808201905061136860008301876110f9565b61137560208301866112c9565b61138260408301856110f9565b61138f6060830184611108565b95945050505050565b600060208201905081810360008301526113b181611117565b9050919050565b600060208201905081810360008301526113d18161117d565b9050919050565b600060208201905081810360008301526113f1816111e3565b9050919050565b6000602082019050818103600083015261141181611249565b9050919050565b6000602082019050818103600083015261143181611289565b9050919050565b600060208201905061144d60008301846112c9565b92915050565b6000604051905081810181811067ffffffffffffffff8211171561147657600080fd5b8060405250919050565b600082825260208201905092915050565b600061149c826114d9565b9050919050565b60008115159050919050565b60006fffffffffffffffffffffffffffffffff82169050919050565b600061ffff82169050919050565b600073ffffffffffffffffffffffffffffffffffffffff82169050919050565b6000819050919050565b600064ffffffffff82169050919050565b600060ff82169050919050565b600061152c826114cb565b9050919050565b61153c81611491565b811461154757600080fd5b50565b611553816114a3565b811461155e57600080fd5b50565b61156a816114af565b811461157557600080fd5b50565b611581816114f9565b811461158c57600080fd5b50565b61159881611503565b81146115a357600080fd5b50565b6115af81611514565b81146115ba57600080fd5b5056fea264697066735822122021e02ef7ea269ba27c5781bc6e6f56826d208285cf6a8d93400f19fba773d69864736f6c634300060c0033",
  "immutableReferences": {},
  "source": "pragma solidity ^0.6.12;\npragma experimental ABIEncoderV2;\n\nimport \"@openzeppelin/contracts/token/ERC20/ERC20.sol\";\n//import \"@openzeppelin/contracts/token/ERC20/SafeERC20.sol\";\nimport \"@openzeppelin/contracts/access/Ownable.sol\";\nimport \"@aave/protocol-v2/contracts/interfaces/ILendingPoolAddressesProvider.sol\";\nimport \"@aave/protocol-v2/contracts/interfaces/ILendingPool.sol\";\n//import \"@aave/protocol-v2/contracts/protocol/libraries/types/DataTypes.sol\";\n\ncontract LynxUserFactory{\n\n    event LynxUserCreated(address userAddress, address contractAddress);\n    address public lendingPoolAddressesProvider;\n    mapping(address => address) internal LynxUsers;\n    address daiAddress = 0xFf795577d9AC8bD7D90Ee22b6C1703490b6512FD;\n\n    function addUser(address _keyUserAddress, address _valueUserContract) internal {\n        LynxUsers[_keyUserAddress] = _valueUserContract;\n    }\n\n    function removeUser(address _keyUserAddress) internal {\n        delete LynxUsers[_keyUserAddress];\n    }\n    \n    function containsUser(address _keyUserAddress) internal view returns (bool) {\n        return LynxUsers[_keyUserAddress] != address(0x0);\n    }\n    \n    function getUserContractByKey(address _keyUserAddress) public view returns (address) {\n        return LynxUsers[_keyUserAddress];\n    }\n\n    constructor(address _lendingPoolAddressesProvider) public {\n        lendingPoolAddressesProvider = _lendingPoolAddressesProvider;\n    }\n\n    function getUserContract() internal view returns(bool, address){\n        if (containsUser(msg.sender)) {\n            return(true, getUserContractByKey(msg.sender));\n        }\n    }\n\n    function getUserBalance() public view returns (uint256) {   \n        address userContractAddress;\n        bool existingUser;\n        uint256 userBalance = 0;\n        (existingUser, userContractAddress) = getUserContract();\n        if (existingUser == true) {\n            LynxUser userContract = LynxUser(userContractAddress);\n            userBalance = userContract.getUserBalance();\n        }\n        return userBalance;\n    }\n\n    function doDeposit(uint256 _amount) public {\n        address userContractAddress;\n        bool existingUser;\n        uint256 assetBalance = ERC20(daiAddress).balanceOf(msg.sender);\n        require(assetBalance >= _amount, \"Not enough tokens to deposit\");\n\n        (existingUser, userContractAddress) = getUserContract();\n        if (existingUser == false) {\n            userContractAddress = createLynxUserContract();\n        }\n        LynxUser userContract = LynxUser(userContractAddress);\n\n        ERC20(daiAddress).transferFrom(msg.sender, address(this), _amount); //transfer to parent as it is approved on client site\n        ERC20(daiAddress).transfer(userContractAddress, _amount); //transfer to user's contract\n        //Option 2: //approve it here to be spent by child contract: require(ERC20(daiAddress).approve(userContractAddress, _amount), \"Approve has failed for user contract\");\n\n        userContract.doDeposit(_amount);\n    }\n\n    function doWithdraw(uint256 _amount) public {\n        address userContractAddress;\n        bool existingUser;\n        (existingUser, userContractAddress) = getUserContract();\n        if (existingUser == true) {\n            LynxUser userContract = LynxUser(userContractAddress);\n            userContract.doWithdraw(_amount);\n        }\n        \n    }\n\n    function createLynxUserContract() internal returns (address) {\n        LynxUser newUser = new LynxUser(msg.sender, lendingPoolAddressesProvider);\n        address contractAddr = address(newUser);\n        addUser(msg.sender, contractAddr);\n        emit LynxUserCreated(msg.sender, contractAddr);\n        return contractAddr;\n    }\n  \n}\n\ncontract LynxUser is Ownable {\n    //using SafeMath for uint256;\n\n    event LogDeposit(\n        address indexed _from,\n        address indexed _to,\n        address indexed _assetAddress,\n        uint256 _depositAmount\n    );\n\n    event LogWithdraw(\n        address indexed _from,\n        address indexed _to,\n        address indexed _assetAddress,\n        uint256 _withdrawAmount\n    );\n\n    address public userAddress;\n    address daiAddress = 0xFf795577d9AC8bD7D90Ee22b6C1703490b6512FD;\n    ILendingPoolAddressesProvider addressesProvider;\n    ILendingPool lendingPool;\n\n    constructor(address _userAddress, address _lendingPoolAddressesProvider) public {\n        userAddress = _userAddress;\n        addressesProvider = ILendingPoolAddressesProvider( _lendingPoolAddressesProvider);\n        lendingPool = ILendingPool(addressesProvider.getLendingPool()); \n    }\n\n    function doDeposit(uint256 _amount) public onlyOwner {\n        require(_amount > 0, \"Amount needs to be greater than 0!!!\");\n\n        //option 2 - see above\n        //uint256 allowance = ERC20(daiAddress).allowance(msg.sender, address(this));\n        //require(allowance >= _amount, \"Please approve first\");\n        //ERC20(daiAddress).transferFrom(msg.sender, address(this), _amount);   //transfer user's DAI to this contract\n\n        address lendingPoolAddress = addressesProvider.getLendingPool();\n        require(ERC20(daiAddress).approve(lendingPoolAddress, _amount), \"Approve has failed\"); //approve first\n        lendingPool.deposit(daiAddress, _amount, address(this), 0);\n\n        require(ERC20(daiAddress).approve(userAddress, _amount), \"Approve deposit has failed for user ???????\");\n\n        emit LogDeposit(userAddress, address(this), daiAddress, _amount);\n    }\n\n    function doWithdraw(uint256 _amount) public onlyOwner {\n        lendingPool.withdraw(daiAddress, _amount, address(this));\n        ERC20(daiAddress).transfer(userAddress, _amount); //send back to user\n        emit LogWithdraw(address(this), userAddress, daiAddress, _amount);\n    }\n\n    function getUserBalance() external view returns (uint256) {\n        address aDAI = lendingPool.getReserveData(daiAddress).aTokenAddress;        \n        uint256 userBalance = ERC20(aDAI).balanceOf(address(this));\n        return userBalance;\n    }\n    \n}\n\n",
  "sourcePath": "C:/Users/arian/Lynx_Wallet_Test/Lynx_Wallet_Test/contracts/LynxUserFactory.sol",
  "compiler": {
    "name": "solc",
    "version": "0.6.12+commit.27d51765.Emscripten.clang"
  },
  "schemaVersion": "3.4.0",
  "updatedAt": "2021-05-25T23:40:28.402Z",
  "devdoc": {
    "kind": "dev",
    "methods": {
      "owner()": {
        "details": "Returns the address of the current owner."
      },
      "renounceOwnership()": {
        "details": "Leaves the contract without owner. It will not be possible to call `onlyOwner` functions anymore. Can only be called by the current owner. NOTE: Renouncing ownership will leave the contract without an owner, thereby removing any functionality that is only available to the owner."
      },
      "transferOwnership(address)": {
        "details": "Transfers ownership of the contract to a new account (`newOwner`). Can only be called by the current owner."
      }
    },
    "version": 1
  },
  "userdoc": {
    "kind": "user",
    "methods": {},
    "version": 1
  }
}